:020000040800F2
:10000000C0390020350200084F1F0008031E0008F9
:100010004D1F0008230B0008F9270008000000000E
:100020000000000000000000000000009D0100082A
:10003000250B000800000000E10100085D24000815
:100040004F0200084F0200084F0200084F0200084C
:100050004F0200084F0200084F0200084F0200083C
:100060004F0200084F0200084F0200084F0200082C
:100070004F0200084F0200084F0200084F0200081C
:100080004F0200084F0200084F0200084F0200080C
:100090004F0200084F0200084F0200084F020008FC
:1000A0004F020008E92400084F0200084F02000830
:1000B0004F0200084F0200084F0200084F020008DC
:1000C0004F0200084F0200084F0200084F020008CC
:1000D0004F020008ED2700084F0200084F020008F9
:1000E0004F0200084F0200084F02000800F002F81B
:1000F00000F045F80AA090E8000C82448344AAF17D
:100100000107DA4501D100F03AF8AFF2090EBAE87A
:100110000F0013F0010F18BFFB1A43F0010318473B
:100120002C4500004C450000103A24BF78C878C127
:10013000FAD8520724BF30C830C144BF04680C60ED
:10014000704700000023002400250026103A28BF35
:1001500078C1FBD8520728BF30C148BF0B60704739
:10016000642900F0F180782900F02A81732900F0D9
:100170009E83002070471FB51FBD10B510BD00F055
:100180009AFB1146FFF7F7FF02F010FC00F0B8FBF6
:1001900003B4FFF7F2FF03BC00F0C0FB224B196869
:1001A0000868B0E8F00F80F30988BFF36F8F4FF055
:1001B000000080F311884EF00D0E70470000000023
:1001C00006480068006880F3088862B661B6BFF32D
:1001D0004F8FBFF36F8F00DF00BF00BF08ED00E05F
:1001E000EFF30980BFF36F8F0F4B1A6820E9F00F10
:1001F000106008B54FF0500080F31188BFF34F8FA7
:10020000BFF36F8F03F0C4FA4FF0000080F3118842
:10021000BDE8084019680868B0E8F00F80F3098865
:10022000BFF36F8F704700BF18000020EFF3058009
:10023000704700000948804709480047FEE7FEE78D
:10024000FEE7FEE7FEE7FEE7FEE7FEE7FEE7FEE786
:1002500004480549054A064B70470000E72400089A
:10026000ED000008C0330020C0390020C035002058
:10027000C03500200FB41CB50C0007AA009001D0B7
:100280002044401E074B7B4469460190069800F0CD
:10029000DCFA002C03D06946002000F0E9FA1CBC0F
:1002A0005DF814FBF105000070B50446856900682F
:1002B000C10601D5302600E02026C00707D070BD5A
:1002C000D4E9012130469047206A401C20626D1E0F
:1002D000F6D570BD70B5044685690078C00707D1B2
:1002E00070BDD4E9012120209047206A401C206283
:1002F0006D1EF6D570BD70B50C460546012A05D0B9
:100300002878800600D5EA69002302E0012305E091
:100310005B1C934202D2E05C0028F9D1A869E61880
:10032000C01AA861286A184428622846FFF7BCFF53
:1003300004E0D5E9012114F8010B9047B442F8D349
:100340002846FFF7C7FF70BD2DE9F041064600249F
:1003500010687529314616A510D0AFF3008000282B
:1003600002DA404213A507E031688A0701D512A5D9
:1003700002E0490704D511A5012401E0AFF3008094
:1003800000210A2206F1240709E0B0FBF2FCB0FBD1
:10039000F2F302FB1C00303078541846491C002848
:1003A000F3D123462A463046BDE8F04100F0EFB9CC
:1003B000000000002D0000002B00000020000000C5
:1003C00070B504460D4621461068AFF300802188C1
:1003D000090502D50F4A7A4402E00E4A7A440E32E9
:1003E000002104F1240305E000F00F060009965DEA
:1003F0005E54491C0028F7D120780023000704D55B
:10040000702D02D009B1022311322046BDE87040A0
:1004100000F0BDB92C4200002DE9F05F894604468A
:100420004FF0000ADFF874B1FB44C0F820A020466A
:10043000E1688847002874D0252806D0D4E9012136
:100440009047206A401C2062F1E700265F46204664
:10045000E16888472028054607DB312D05D2781949
:1004600010F8200C08B10643F1E7B00701D526F0DB
:100470000406C4F81CA00027C4F818A02A2D09D02F
:10048000284602F08BFA38B304EB8708303DC8F8F1
:10049000185019E059F8041B204604EB87029161BB
:1004A000E1688847012F054618D1E069002820DA65
:1004B00026F020061DE0D8F8180000EB800005EBC0
:1004C00040003038C8F818002046E16888470546E3
:1004D00002F064FA0028EED1012F0AD02E2D08D1A7
:1004E0002046E16888477F1C0546022F46F020061B
:1004F000C4DBA069002803DA404246F00106A0618F
:10050000F00701D026F010066C2D0BD0682D09D015
:100510004C2D39D06A2D35D0742D35D07A2D33D06D
:1005200016E038E0E1682F4620468847B842054685
:1005300009D16C2F26D04FF48060E1680643204635
:100540008847054604E06C2F1AD04FF480700643AC
:100550000DB3A5F14100192802D8203546F40066F4
:100560004A462946204626604E46FFF7F9FD80B1EF
:1005700001280BD0F61D26F0070000F1080956E708
:100580004020E4E78020D8E70020D6E706F1040900
:100590004DE7284652E7206ABDE8F09F024200007E
:1005A00040EA010310B59B070FD1042A0DD310C8F0
:1005B00008C9121F9C42F8D020BA19BA884201D942
:1005C000012010BD4FF0FF3010BD1AB1D30703D08A
:1005D000521C07E0002010BD10F8013B11F8014B40
:1005E0001B1B07D110F8013B11F8014B1B1B01D15C
:1005F000921EF1D1184610BD032A40F2308010F04F
:10060000030C00F0158011F8013BBCF1020F6244AD
:1006100098BF11F801CB00F8013B38BF11F8013B3E
:10062000A2F1040298BF00F801CB38BF00F8013BEB
:1006300011F0030300F02580083AC0F0088051F85B
:10064000043B083A51F804CBA0E80810F5E7121D66
:100650005CBF51F8043B40F8043BAFF30080D20785
:1006600024BF11F8013B11F801CB48BF11F8012B51
:1006700024BF00F8013B00F801CB48BF00F8012B74
:10068000704710B5203AC0F00B80B1E81850203AFE
:10069000A0E81850B1E81850A0E81850BFF4F5AF22
:1006A0005FEA027C24BFB1E81850A0E8185044BFAC
:1006B00018C918C0BDE810405FEA827C24BF51F819
:1006C000043B40F8043B08BF7047D20728BF31F80D
:1006D000023B48BF11F8012B28BF20F8023B48BF5E
:1006E00000F8012B704702F0FF0343EA032242EABD
:1006F000024200F002B84FF000020429C0F012805C
:1007000010F0030C00F01B80CCF1040CBCF1020FC4
:1007100018BF00F8012BA8BF20F8022BA1EB0C0199
:1007200000F00DB85FEAC17C24BF00F8012B00F88F
:10073000012B48BF00F8012B70474FF0000200B5B5
:10074000134694469646203922BFA0E80C50A0E8F4
:100750000C50B1F12001BFF4F7AF090728BFA0E8A2
:100760000C5048BF0CC05DF804EB890028BF40F86E
:10077000042B08BF704748BF20F8022B11F0804FB0
:1007800018BF00F8012B70477047704770472DE97C
:10079000F0470D4699469246044600F12408016848
:1007A000880604D5E06921F01001216000E00120F5
:1007B000A84201DD471B00E00027A1697A1902EB7E
:1007C0000900081AA0612078C00602D42046FFF76D
:1007D0006BFD002608E0D4E901211AF806009047D5
:1007E000206A401C761C20624E45F4DB2078C0064F
:1007F0000AD52046FFF758FD06E0D4E90121302054
:100800009047206A401C2062381EA7F10107F4DCE3
:1008100007E0D4E9012118F805009047206A401C40
:100820002062281EA5F10105F3DC2046FFF752FDEA
:100830002078000602D50220BDE8F0870120FBE702
:1008400001694A1C02610878704700B58FB0CDE994
:1008500001310021059105497944CDE90310114684
:100860006846FFF7D9FD0FB000BD0000E5FFFFFFB0
:100870000A6802F8010B0A607047D1E900239A4226
:1008800002D2531C0B601070704710B5436913B14E
:10089000AFF3008001E0FFF72EFD012010BD1278BC
:1008A00000F124010A7000224A700122EDE711686C
:1008B0004FF0FF32E9E7754600F02CF8AE46050030
:1008C0006946534620F00700854618B020B5FFF76B
:1008D000BFFCBDE820404FF000064FF000074FF08E
:1008E00000084FF0000B21F00701AC46ACE8C0094E
:1008F000ACE8C009ACE8C009ACE8C0098D46704757
:1009000010B50446AFF300802046BDE81040FFF765
:100910003FBC0000004870475C33002001491820AC
:10092000ABBEFEE7260002007047000010B500F0E5
:10093000BDF800F058F80349884201D0012010BDED
:10094000002010BD1740EF0070B515460E46044656
:10095000B2F5807F01D9012070BD00F079F800F078
:100960008BF800F09BF8022000F0A2F8C4F30740D7
:1009700000F09EF8C4F3072000F09AF8E0B200F00F
:1009800097F8002404E0305D00F092F8641CA4B2F3
:10099000AC42F8D300F07AF800F05AF8002070BDAD
:1009A00070B515460E46044600F052F800F076F891
:1009B000032000F07DF8C4F3074000F079F8C4F399
:1009C000072000F075F8E0B200F072F8002404E0AF
:1009D000FF2000F06DF83055641CAC42F8D300F0F5
:1009E00055F8002070BD10B500F058F89F2000F0B9
:1009F0005FF8FF2000F05CF80404FF2000F058F8D6
:100A000044EA0024FF2000F053F8044300F03EF8CD
:100A1000204610BD10B5040B240300F019F800F0B7
:100A20002BF800F03BF8202000F042F8C4F3074018
:100A300000F03EF8C4F3072000F03AF8E0B200F00E
:100A400037F800F023F800F003F8002010BD000094
:100A500010B5084C00F022F8052000F029F8FF201E
:100A600000F026F8641E01D0C007F8D1BDE81040A0
:100A700000F00CB8FFFF0F0010B500F00FF80620D3
:100A800000F016F8BDE81040AFF3008001221146D7
:100A9000014800F0A9B90000000C0140002201212A
:100AA000014800F0A1B90000000C014070470000AF
:100AB00001B582B0FF208DF804006420009001236E
:100AC00001AA02A9024800F07DFD9DF804000EBDB8
:100AD0004C07002010B5054801F03AFABDE8104077
:100AE00001220349034801F013B900003408002033
:100AF00004000020A407002001B5642301226946F8
:100B0000014801F02DF908BDA407002010B50446E6
:100B100003E000BFFFF7F0FF641C20780028F9D144
:100B200010BDFEE7704772B6FEE710B590F82110D1
:100B30000022022905D00421816380F820200120B1
:100B400010BD01680B6823F00E030B6001680B6891
:100B500023F001030B6090F84030C46B012101FACF
:100B600003F3636080F8211080F82020104610BD48
:100B700010B590F821100024022903D004218163CC
:100B800001243DE001680A6822F00E020A60016853
:100B90000A6822F001020A601A4A0168914201D1F2
:100BA000012121E0174A1432914201D110211BE0AA
:100BB000144A2832914201D1891515E0114A3C327C
:100BC000914201D189140FE00E4A5032914202D174
:100BD0004FF4803108E00B4A6432914202D14FF465
:100BE000801101E04FF08071064A083A51600121FE
:100BF00080F82110002180F82010416B01B1884756
:100C0000204610BD080002402DE9F84FDFF8B891EA
:100C10000024A9F1040B23460F2709F1040AABF1C4
:100C2000040EC9E00125A5402A40AA427DD1674EA5
:100C3000D1F804C0ACEB0608B44532D014DCBCF1EA
:100C4000030F3AD009DCBCF1000F2AD0BCF1010F30
:100C50001CD0BCF1020F31D11DE0BCF1110F17D037
:100C6000BCF1120F2AD119E0B8F5881F19D006DCA3
:100C7000B8F5803F15D0B8F5801F1FD111E0B8F549
:100C8000001F0ED0B8F5041F18D10AE0CB6815E09C
:100C9000CB681B1D12E0CB6808330FE0CB680C3328
:100CA0000CE08B682BB1012B4FF0080303D045619A
:100CB00004E0042302E0056100E00023FF2A01D8DC
:100CC000064601E000F104064FEA840501D9A5F1CA
:100CD0002005D6F8008007FA05FC28EA0C0803FA7C
:100CE00005F548EA0508C6F800804D68ED0062D5B4
:100CF000374DAE6946F00106AE61AD6924F00306DA
:100D000005F001050095334D06EB050CDCF80850A5
:100D1000A607360F07FA06F825EA0805DFF8B880B7
:100D2000404503D14FF0000817E044E0DFF8AC8005
:100D3000404502D14FF001080FE0DFF8A4804045A4
:100D400002D14FF0020808E0DFF89880404502D158
:100D50004FF0030801E04FF0040808FA06F848EAEB
:100D60000508CCF808804D68D9F80060ED024D46C2
:100D700001D5164300E096432E604D68DAF8006016
:100D8000AD02554601D5164300E096432E604D68EE
:100D9000DBF80060AD035D4601D5164300E09643E5
:100DA0002E604D68DEF80060ED03754601D51643F0
:100DB00000E096432E60641C0D682A46E5407FF4EF
:100DC00031AFBDE8F88F00000804014000001110A9
:100DD000001002400000014000080140000C0140EA
:100DE00000100140001401400AB10161704709047C
:100DF000FBE7000001488068704700000800002001
:100E00000248816802781144816070470800002020
:100E1000074810B5016841F010010160032000F09F
:100E2000A1F80F2000F006F800F04AF8002010BDED
:100E30000020024030B505461C4887B0816941F466
:100E400000618161806906A900F40060009001A83A
:100E500000F030F900F05EF91549164AB0FBF1F1E7
:100E60001548491E0260416040F2E7320021C0E9A6
:100E700003218160816100F09FFC040012D10E48C3
:100E800000F0C8FC04000DD1192000F03DF8102D31
:100E900007D200222946192000F044F807480560CF
:100EA00000E0012407B0204630BD000000100240E1
:100EB00040420F00002C0140EC0700200C000020F5
:100EC0000F4808B5816941F001018161816901F034
:100ED00001010091C16941F08051C161C0690022E6
:100EE00000F0805000900F21901E00F01BF8054884
:100EF000416821F0E06141F00071416008BD0000EF
:100F00000010024000000140002809DB00F01F0231
:100F1000012191404009800000F1E020C0F800115B
:100F200070470000F0B40E4B1B680C46C3F302235D
:100F3000C3F10705042D00D90425191D072901D285
:100F4000002300E0DB1E012606FA05F1491E2140C0
:100F500099409E40761E16403143F0BC01F00EBD14
:100F60000CED00E0064900F0070208684FF6FF03A9
:100F7000184040EA0220034A10430860704700000E
:100F80000CED00E00000FA052DE9F0470F460500E2
:100F900061D0434E306800F00700B84209D2306893
:100FA00020F0070038433060306800F00700B84296
:100FB00051D128683B4C810712D5400703D56068A2
:100FC00040F4E06060602878000703D5606840F472
:100FD000605060606068A96820F0F00008436060BD
:100FE0002878C00728D06868012810D02168022816
:100FF00010D0890700292EDA616821F0030101432E
:101000006160FFF7F7FE804641F288390DE0216804
:101010008903EFE78901EDE7FFF7ECFEA0EB08019C
:10102000494502D90320BDE8F0876068696800F08F
:101030000C00B0EB810FEFD1306800F00700B84230
:101040000BD9306820F0070038433060306800F07A
:101050000700B84201D00120E5E72878400705D510
:101060006068E96820F4E060084360602878000761
:1010700006D56068296920F4605040EAC1006060CC
:1010800000F058F86168084AC1F30311515CC84088
:101090000649086006480068FFF7CCFE0020C2E75A
:1010A0000020024000100240EE450008140000201D
:1010B0000C0000200F2202600C4A536803F0030367
:1010C0004360536803F0F0038360536803F4E06304
:1010D000C36052684FF4E06303EAD202026104483D
:1010E000006800F007000860704700000010024030
:1010F000002002400448054900684968044AC1F3D9
:101100000221515CC84070471400002000100240CA
:10111000FE4500080448054900684968044AC1F3CF
:10112000C221515CC84070471400002000100240EA
:10113000FE4500080E4A51680E4801F00C03042BCE
:1011400011D0082B0FD10C48C1F38343C903C05CF5
:101150000AD55168084AC1F34041921E515C054AC4
:101160005043B0FBF1F0704704494843704700001A
:101170000010024000127A00DE45000800093D0020
:101180002DE9F84F040070D02078C04DC00749D039
:101190006868C0F38100012807D06868C0F3810047
:1011A000022809D16868C00306D52868800339D5AC
:1011B00060680028E7D035E06068B0F5803F0BD06C
:1011C00010B1B0F5A02F11D0286820F4803028602D
:1011D000286820F4802002E0286840F480302860ED
:1011E000606890B1FFF706FE06460AE0286840F402
:1011F00080202860F0E700BFFFF7FCFD801B64281B
:1012000073D828688003F7D50CE0FFF7F3FD064696
:1012100005E000BFFFF7EEFD801B6428F0D82868CA
:101220008003F7D420789A4E80074FF001094FF0E1
:10123000000839D5686810F00C0F07D06868C0F353
:101240008100022809D16868C00306D42868800795
:1012500014D52069012808D110E02069B0B1C6F882
:101260000090FFF7C7FD074605E00AE1FFF7C2FD62
:10127000C01B0228C4D828688007F7D52868616990
:1012800020F0F80040EAC10028600DE0C6F80080B8
:10129000FFF7B0FD074604E0FFF7ACFDC01B0228D6
:1012A00023D828688007F7D4207800072CD5794800
:1012B000A169D9B1C0F80090FFF79CFD074604E092
:1012C000FFF798FDC01B02280FD8686A8007F7D582
:1012D00071484FF4FA510068B0FBF1F0009000BF84
:1012E0000098411E0091FAD20EE080E0C0F8008024
:1012F000FFF780FD074604E0FFF77CFDC01B0228D6
:1013000075D8686A8007F7D42078400760D5E86907
:101310000027C00008D4E86940F08050E861E8691F
:10132000012700F0805000905C480168C90513D483
:101330000168834641F480710160FFF75BFD8246DE
:1013400006E000BFFFF756FDA0EB0A0064284ED868
:10135000DBF80000C005F5D5E06801280AD008B127
:10136000052813D0286A20F001002862286A20F09E
:10137000040002E0286A40F001002862E06841F2BF
:10138000883B98B1FFF736FD82460BE0286A40F0B3
:1013900004002862EEE700BFFFF72CFDA0EB0A0176
:1013A00059455AD8286A8007F6D50CE0FFF722FD88
:1013B000824605E0FFF71EFDA0EB0A0159454CD817
:1013C000286A8007F6D41FB1E86920F08050E861F0
:1013D000E06988B36968C1F38101022944D0022819
:1013E000C6F8608004D0FFF705FD044638E034E01D
:1013F000FFF700FD074604E0FFF7FCFCC01B0228D6
:101400002BD828688001F7D4206AB0F5803F05D139
:101410006868A16820F4003008436860D4E90801D6
:101420000843696821F4741108436860C6F8609045
:10143000FFF7E0FC044606E025E000BFFFF7DAFC1A
:10144000001B022809D828688001F7D51BE000BFDF
:10145000FFF7D0FC001B022802D90320BDE8F88F5B
:1014600028688001F4D40EE00128F7D06868226A69
:1014700000F48031914204D1616A00F47010884216
:1014800001D00120EAE70020E8E700000010024058
:1014900000004242800442421400002000700040DC
:1014A00070B5040009D0606A002540B1256165610E
:1014B000A56294F8510040B10CE0012070BD606855
:1014C000B0F5827FF4D0E561F2E784F85050204611
:1014D00000F040F8022084F851002068016821F0F3
:1014E00040010160A088218900F4827001F4044168
:1014F0000843A18901F400610843217C01F0020145
:101500000843217D01F001010843218B01F40071A2
:101510000843217F01F03801084394F8201001F0BE
:1015200080010843218D01F40051084321680860BF
:10153000A069042101EA1040216848602068C1695F
:1015400021F40061C1616565012084F8510000202B
:1015500070BD000030B585B0002400940194029461
:10156000039400681449884223D11448816941F4E6
:1015700080518161816901F480510491816941F058
:101580000401816180690E4D00F004000490A020E8
:101590000090022001900320039069462846FFF73F
:1015A00033FB4020CDE90004694628460294FFF74A
:1015B0002BFB05B030BD00000030014000100240A0
:1015C000000801402DE9FF4F81B01D4693460446B7
:1015D0004FF001090E9EFFF70DFC074694F85100ED
:1015E0006168012806D0B1F5827F3CD1A168C9BBF2
:1015F000042838D10298002871D0BBF1000FFBD02D
:10160000002DF9D094F8500001282CD04FF0010A99
:1016100084F850A094F85100042802D0052084F8E2
:1016200051004FF00008C4F85480C4F838B0E58782
:10163000A58702992163E586A586C4F84080C4F891
:10164000448020680168490603D4016841F04001E4
:101650000160E068B0F5006F606808D0F0B3012D5C
:1016600049D081E0FFE7022005B0BDE8F08F08B166
:10167000012D39D1206B21680088C860206B801C47
:101680002063E08E401EE0862EE020688168890796
:101690000FD5E18E69B1B9F1010F0AD1216B09882B
:1016A000C160206B801C2063E08E401EE0864FF0FE
:1016B000000920688168C9070CD0E18F51B1C0686A
:1016C000A16B0880A06B801CA063E08F401EE087A8
:1016D0004FF00109FFF78EFBC01B01E00BE067E054
:1016E000B04201D3701C50D1E08E0028CDD1E08FE4
:1016F0000028CAD13EE0206B216800780873206B77
:10170000401C2063E08E401EE0862DE0206881684A
:1017100089070FD5E18E69B1B9F1010F0AD1216BAB
:1017200009780173206B401C2063E08E401EE08628
:101730004FF0000920688168C9070CD0E18F51B1D2
:10174000C068A16B0870A06B401CA063E08F401EB6
:10175000E0874FF00109FFF74DFBC01BB04202D3F9
:10176000701C01D011E086B1E08E0028CED1E08F50
:101770000028CBD13A463146204600F00FFC50B14C
:101780002020606584F8508012E084F851A084F82D
:101790005080032068E7A06818B92068C168806895
:1017A000009084F851A084F85080606D0028F1D03A
:1017B000012059E77047704710B5040003D094F832
:1017C0003D0010B107E0012010BD002084F83C006E
:1017D000204600F01EF8022084F83D00211D2068FC
:1017E00000F088FE012084F8460084F83E0084F86A
:1017F0003F0084F8400084F8410084F8420084F8F7
:10180000430084F8440084F8450084F83D0000203B
:1018100010BD704790F83D10012901D0012070479C
:10182000022180F83D100168CA6842F00102CA60D6
:1018300000680B49884208D0B0F1804F05D00949B3
:10184000884202D00849884204D1816801F007012A
:10185000062903D0016841F00101016000207047B2
:10186000002C0140000400400008004070472DE9B2
:10187000F04104460068C66805694FF00007A907F3
:1018800013D5B10711D5F91E016101202077206819
:1018900080698007204602D0FFF7E8FF04E000F0EF
:1018A0007EF8204600F07CF82777680716D5700789
:1018B00014D521686FF004000861022020772068A9
:1018C000806910F4407F204602D0FFF7CFFF04E08C
:1018D00000F065F8204600F063F82777280715D553
:1018E000300713D521686FF00800086104202077C5
:1018F0002068C0698007204602D0FFF7B7FF04E0E8
:1019000000F04DF8204600F04BF82777E80616D592
:10191000F00614D521686FF01000086108202077C8
:101920002068C06910F4407F204602D0FFF79EFF78
:1019300004E000F034F8204600F032F82777E8079A
:1019400008D0F00706D021686FF00100086120463A
:1019500000F028F8280608D5300606D521686FF073
:10196000800008612046FFF725FF680608D570064D
:1019700006D521686FF040000861204600F01CF891
:10198000A8060AD5B00608D521686FF020000861C6
:101990002046BDE8F041FFF70EBFBDE8F08170477B
:1019A0007047000000680349884201D1FFF728BA58
:1019B00070470000002C01407047704770470000DE
:1019C000F8B5016804460868CA684B6910F00F0F43
:1019D0004FF0000559D003F0010602F49077374329
:1019E00065D0C10705D0D10503D5616C41F0010177
:1019F0006164410705D5D90703D0616C41F002014C
:101A00006164810705D5D90703D0616C41F00401F9
:101A10006164010707D502F02001314303D0616CF6
:101A200041F008016164616C00293AD0800604D558
:101A3000900602D5204600F0C8FD20684069616C20
:101A4000C0F38010090700D460B3204600F096FD73
:101A500020684069400621D52068143050E8001FF6
:101A600021F0400140E80012002AF5D1E06BA8B156
:101A70006D494163E06BFFF77BF8002811D0E06B04
:101A8000416B01B0BDE8F040084783060FD59306CF
:101A90000DD52046BDE8F84000F097BD2046FFF781
:101AA0008DFFF8BD2046FFF789FF6564F8BD266B02
:101AB0002023012E7CD1C6067AD5D60678D50868B3
:101AC0004868009048694FF00206400640D5E16B37
:101AD000086840680004000CE8D0A28D8242E5D975
:101AE000E085886920282DD020680C3050E8001F40
:101AF00021F4807140E80012002AF5D120681430EA
:101B000050E8001F21F0010140E80012002AF5D141
:101B10002068143050E8001F21F0400140E8001216
:101B2000002AF5D184F84230256320680C3050E853
:101B3000001F21F0100140E80012002AF5D1E06BEF
:101B4000FEF7F3FF6663A08DE18D401A81B22AE0B3
:101B5000A08DE18D401A81B2E08D0028A6D0002929
:101B6000A4D022680C3252E8000F20F4907042E8B2
:101B70000007002FF5D12068143050E8002F22F024
:101B8000010240E80027002FF5D184F84230256398
:101B900020680C3050E8002F22F0100240E80023AB
:101BA000002BF5D166632046FFF707FFF8BDFFE77E
:101BB00005062BD5150629D594F841002128F5D125
:101BC000A068B0F5805F01D12069B0B1206A411CE6
:101BD0002162216800784860E08C401E0004000CFF
:101BE000E084E3D12068C16821F08001C1602068F1
:101BF000C16841F04001C160D8E7206A0088C0F3A5
:101C000008004860206A801C2062E5E74006CDD5C8
:101C10005006CBD5CA68204622F04002CA6084F83C
:101C2000413000F0EDF8C1E76D25000870B5040003
:101C300004D094F84100002510B106E0012070BDE9
:101C400084F84050204600F023F8242084F8410016
:101C50002068C16821F40051C160204600F016FDE3
:101C60002068016921F4904101612068416921F0F7
:101C70002A0141612068C16841F40051C160656476
:101C8000202084F8410084F842006563002070BD84
:101C900030B585B000240094019402940394006848
:101CA000184988422CD11848816941F480418161EA
:101CB000816901F480410491816941F004018161ED
:101CC0008069124D00F0040004904FF40070009001
:101CD000022001900320039069462846FEF794FFF6
:101CE0002815CDE90004694628460294FEF78CFFCA
:101CF000002205212520FFF715F92520FFF704F91B
:101D000005B030BD0038014000100240000801401D
:101D100090F84230202B01D00220704721B11AB137
:101D20000023036300F00EBD0120704710B500686A
:101D3000074988420BD101220649074800F013F9F0
:101D4000BDE81040012203490448FFF7E1BF10BD80
:101D5000003801400400002034080020A4070020BF
:101D60002DE9F843044690F84100984616460D4682
:101D7000202802D00220BDE8F88385B17EB1002082
:101D80006064212084F84100FFF734F8A68481467E
:101D9000E684A0682027B0F5805F02D003E0012030
:101DA000E9E7206910B12E4600250EE000260CE080
:101DB0008021204600F0E1FCA8B9C6B116F8010B5D
:101DC00021684860E08C401EE084E08C4B464FF078
:101DD0000002CDF800800028EAD14FF040012046F3
:101DE00000F0CBFC40B184F841700320C3E735F824
:101DF000020BC0F30800E3E784F841700020BAE763
:101E00007047FEE700B587B01C2206496846FEF71A
:101E100038FC0021684600F053FE0349086007B013
:101E200000BD0000B041000800000020F0B585B002
:101E3000002423480094019402940394816941F0A2
:101E400010018161816901F010010491816941F003
:101E500020018161816901F020010491816941F0D3
:101E600004018161816901F004010491816941F0FB
:101E7000080181618069012200F00800114E5503BC
:101E8000049029463046FEF7AFFF0F4F012211465E
:101E90003846FEF7A9FF0220CDE902400095012552
:101EA000694601953046FEF7AFFE0320CDE90240BA
:101EB0000095694601953846FEF7A6FE05B0F0BDCF
:101EC0000010024000100140000C0140104810B505
:101ED0000E4901604FF48271416000218160C16050
:101EE0004FF400720161C0E905121022C0E9072118
:101EF000416281620A21C162FFF7D2FA002803D051
:101F0000BDE81040FEF70FBE10BD000000300140DC
:101F10004C0700200C4810B50A4901604FF4E1312C
:101F20004160002181600C22C160C0E9041281611E
:101F3000C161FFF77BFE002803D0BDE81040FEF72B
:101F4000F2BD10BD00380140A4070020FEE7FEE707
:101F50000021A0F80011A0F802114FF48071A0F840
:101F60000411FEF7C8BBF0B50346002013E0B3F838
:101F70000251B3F804616C1CB4FBF6F706FB17447E
:101F8000B3F80061A4B2A64207D00E5C5E55401CB7
:101F9000A3F8024180B29042E9D3F0BDF8B51546EE
:101FA0000E460B46009204460122022100F010F872
:101FB00040B93346002280212046009500F008F801
:101FC000002804D0606D40F0200060650320F8BD5B
:101FD0002DE9F8431E46914688460446089DFEF7C3
:101FE00009FF401B351AFEF705FF07462548006824
:101FF000C0F3CB30684338E0701C37D0FEF7FAFEF0
:10200000C01BA84203D215B1009860B32CE0206831
:10201000416821F0E00141606068B0F5827F0BD13A
:10202000A068B0F5004F02D0B0F5806F04D12068F1
:10203000016821F040010160A06AB0F5005F09D19C
:102040002068016821F4005101602068016841F4B2
:1020500000510160012084F85100002084F85000F4
:102060000320BDE8F8830025401E009020688168A9
:1020700038EA010004D000214945BDD10020F0E735
:102080000121F9E714000020ACB05C4900240DF1F7
:10209000700C0FC9189419941A941B948CE80F00B3
:1020A000642000F001FD56A0FEF730FD5DA0FEF7B4
:1020B0002DFD2046FEF7AEFC642000F0F5FC61A08B
:1020C000FEF724FD10221CA92046FEF73DFC0A2045
:1020D00000F0EAFC62A0FEF719FD102218A92046C4
:1020E000FEF75EFC18AB65A240216846FEF7C2F819
:1020F0006846FEF70BFD102218A91CA8FEF750FA3F
:10210000002823D062A000BFFEF700FD68A0FEF704
:10211000FDFC06216EA000F071FB03466EA240217B
:102120006846FEF7A7F86846FEF7F0FC73A2402168
:102130006846FEF79FF86846FEF7E8FC774A0621F6
:1021400063A000F06FFB18B175A002E07CA0DBE794
:1021500083A0FEF7DBFC8AA000F0BDFB03468AA249
:1021600040216846FEF786F86846FEF7CFFC10224D
:1021700027A98D4800F060FB27AB8CA24021684660
:10218000FEF778F86846FEF7C1FC90A00DF1800CD0
:102190000FC88CE80F00082310AA202120A800F007
:1021A0007AFB03468DA240216846FEF763F8684635
:1021B000FEF7ACFC91A240216846109BFEF75AF84E
:1021C0006846FEF7A3FC94A224AB07CA83E8070085
:1021D00024A800F0A3FB24AB92A240216846FEF79E
:1021E00049F86846FEF792FC94A0FEF78FFC4FF486
:1021F0007A74204600F058FCFBE70000CC41000850
:102200000D0A5B5461736B5D20466C6173682052EC
:102210006561642F577269746520546573742E2E3E
:102220002E0D0A005B5461736B5D2045726173690A
:102230006E6720736563746F7220302E2E2E0D0A28
:10224000000000005B5461736B5D20577269746914
:102250006E6720646174612E2E2E0D0A000000004E
:102260005B5461736B5D2052656164696E672064C5
:102270006174612E2E2E0D0A000000005B54617304
:102280006B5D20526561643A2025730D0A000000E1
:102290005B5461736B5D20466C6173682054657399
:1022A000743A204641494C4544210D0A0000000083
:1022B0000D0A5B5461736B5D205574696C73204D1E
:1022C0006F64756C6520546573742E2E2E0D0A0094
:1022D00031323334353600005B5461736B5D20431B
:1022E0005243333228223132333435362229203DCD
:1022F0002030782530386C580D0A00005B5461732B
:102300006B5D2045787065637465643A2030783081
:10231000393732443336310D0A00000061D3720977
:102320005B5461736B5D2043524333325F56657279
:102330006966793A20504153534544210D0A000003
:102340005B5461736B5D20466C61736820546573E8
:10235000743A20504153534544210D0A00000000B7
:102360005B5461736B5D2043524333325F56657239
:102370006966793A204641494C4544210D0A0000DE
:102380002D313233000000005B5461736B5D2053CC
:102390007472546F496E7428222D313233222920F1
:1023A0003D20256C640D0A0038FEFFFF5B5461730D
:1023B0006B5D20496E74546F537472282D3435361A
:1023C00029203D2025730D0A0000000068656C6C13
:1023D0006F20776F726C6420666F6F005B5461735F
:1023E0006B5D2053747253706C69743A20256420BD
:1023F000746F6B656E730D0A000000005B546173AF
:102400006B5D20746F6B656E735B305D203D2022C9
:102410002573220D0A000000202068656C6C6F2077
:10242000200000005B5461736B5D20537472547222
:10243000696D3A20222573220D0A00005B546173F6
:102440006B5D205574696C73205465737420436F01
:102450006D706C657465210D0A00000010B5502088
:1024600080F31188BFF34F8FBFF36F8F01F0F2FC41
:1024700018B104494FF080500860002080F31188A3
:1024800010BD000004ED00E030B58FB02821684693
:10249000FEF753F914210AA8FEF74FF901210804A9
:1024A000CDE900100024029402250491CDE90750E3
:1024B0004FF4E01009906846FEF762FE08B172B66C
:1024C000FEE70F20CDE90A054FF48060CDE90C400E
:1024D00002210AA80E94FEF757FD002801D072B61B
:1024E000FEE70FB030BD70470148FFF7C0B90000EC
:1024F000EC070020F0B50268194B1A4C1A4D4FF04A
:102500008047984205D0B84203D0A04201D0A842EB
:1025100003D122F070064A683243984205D0B8428F
:1025200003D0A04201D0A84203D122F44074CA686B
:1025300022434C6922F08002224302608A68C26210
:102540000A688262984201D10969016301214161EF
:102550000169C90703D0016921F001010161F0BDE2
:10256000002C0140000400400008004010B5406A03
:102570000021C185C184FFF721FA10BD01680C312B
:1025800051E8002F22F4907241E80023002BF5D18E
:102590000168143151E8002F22F0010241E80023C4
:1025A000002BF5D1016B012909D101680C3151E8EB
:1025B000002F22F0100241E80023002BF5D120214A
:1025C00080F8421000210163704708B590F842106E
:1025D000222901D0022008BD82684FF480539A421C
:1025E00001D1016921B1816A9A421BD04AB10AE046
:1025F0000268816A5268C2F308020A80816A891CF3
:1026000008E0026972B10268526802F07F020A7043
:10261000816A491C8162C18D491E0904090CC1856A
:1026200003D01BE002685268F1E70168CA6822F033
:102630002002CA600168CA6822F48072CA60016818
:102640004A6922F001024A61202180F842100021EB
:102650004163026B012A03D0FFF768FB002008BD2D
:10266000016301680C3151E8002F22F0100241E8AB
:102670000023002BF5D101680A68D20602D50A684A
:1026800049680091818DFFF798F9E7E770B5044636
:1026900000680169E26821F4405111430161216938
:1026A000A0680843616908432168CA6841F20C6365
:1026B0009A430243CA6020684169A26921F44071CB
:1026C000114341611E492068884202D1FEF722FD74
:1026D00001E0FEF70FFD00EBC00101EB00126068A6
:1026E00064218000B2FBF0F3B3FBF1F36FF0180646
:1026F0007343B2FBF0F5B2FBF0F605EB8305322332
:1027000003EB0515B5FBF1F5B6FBF1F605F0F005A9
:1027100005EB0615B2FBF0F6B2FBF0F0B0FBF1F002
:102720006FF01802504306EB800003EB0010B0FB83
:10273000F1F0216800F00F002844886070BD0000AF
:102740000038014081628285C285002141642221D6
:1027500080F84210016921B10168CA6842F48072B0
:10276000CA6001684A6942F001024A610068C168B2
:1027700041F02001C160002070472DE9F8439846E0
:1027800017460D460446089E24E0701C22D0FEF732
:1027900031FBA0EB0800B0421AD8CEB12068C16866
:1027A000490717D5802D15D0402D13D00168C94396
:1027B00009070FD401680025406800902046FFF704
:1027C000DDFE0820606484F840500120BDE8F883F5
:1027D0000320FBE72068006835EA000004D00020F1
:1027E000B842D2D00020F1E70120F9E70148FFF715
:1027F000E7B80000A4070020FEE7000030B54FF066
:10280000FF330022064C07E0855C5D40EDB2521CB0
:1028100054F8255085EA13238A42F5D3D84330BDB6
:10282000DC41000810B51446FFF7E8FFA04201D1D3
:10283000012010BD002010BDFEB500231C4600295C
:1028400028D0002A26D0002803DA2D240C70012479
:1028500040426F4668B10A25002815DD90FBF5F669
:1028600005FB160690FBF5F03036FE545B1CDBB220
:10287000F2E730208DF80000012306E05B1EDBB29A
:10288000F85C0855641CE4B213B1501E8442F5DBB9
:1028900000200855FEBDF0B505004FF000000646CB
:1028A00004460DD062B15BB184462F5D002F08D085
:1028B000984206D28F4205D105F804C0002608E0F0
:1028C0000020F0BD2EB92E1942F82060401CC0B285
:1028D0000126641CE9E770B5024600200123014689
:1028E00000E0491C545C202CFBD0E4B22D2C02D01B
:1028F0002B2C02D002E04FF0FF33491C6FF02F0564
:10290000545CA4F13006092E06D800EB800005EBDC
:1029100040002044491CF3E7584370BD70B50021C6
:10292000002811D00278002A0ED000E0491C425C39
:10293000202AFBD0092AF9D012F0FF0F4FF0000433
:1029400001D00A4602E0047070BD521C835C002B6B
:10295000FBD1521E8A4204D9835C202BF9D0092B6B
:10296000F7D039B10B4603E0C55C5E1A5B1C855598
:102970009342F9D9511A0844447070BD0907090EF1
:10298000002804DB00F1E02080F80014704700F01C
:102990000F0000F1E02080F8141D704730380A283D
:1029A00001D20120704700207047000088B0FEF778
:1029B0002FFAFFF769FDFFF739FAFFF787FAFFF7FC
:1029C000A9FAFEF787F80FA0FEF7A0F8FDF7AEFF13
:1029D00050B117A0FEF79AF81BA0FEF797F8FFF783
:1029E00011FA00F068F8FEE722A0FEF78FF8FDF775
:1029F000FAFF034624A220216846FDF73BFC684607
:102A0000E8E700000D0A3D3D3D3D3D3D3D3D3D3D7E
:102A100020446174614C6F676765722054657374FC
:102A2000203D3D3D3D3D3D3D3D3D3D0D0A0000000D
:102A3000466C61736820496E69743A204641494C7E
:102A40004544210D0A0000003D3D3D3D3D3D3D3DDD
:102A50003D3D3D3D3D3D3D3D3D3D3D3D3D3D3D3DA6
:102A60003D3D3D3D3D3D3D3D3D3D3D3D3D3D0D0AF9
:102A700000000000466C61736820496E69743A205A
:102A80004F4B0D0A000000004A454445432049448D
:102A90003A2030782530366C580D0A000146002067
:102AA000842900D0C81C704710B500B9012000F07F
:102AB000BBFD002010BD10B500F01EFE002010BDB3
:102AC0007FB50D4604464169B0F9080081B1A1699E
:102AD00071B1FFF7E3FFD4E905128DE80700D4E9EF
:102AE00000102B46226901F076F9039004B070BD06
:102AF000FFF7D4FF03A9CDE90001208A2B4682B25B
:102B0000D4E9001001F03AF9012801D00020EDE7E6
:102B10000398EBE72DE9F041184C0F460546E668AF
:102B20002068001D00F04AFC38B9206890F82C108D
:102B300001208840216981432161681C07D137B198
:102B40002168BDE8F0410E48091D00F089BC2068ED
:102B50003544B5424560216805D2A06BBDE8F0411F
:102B6000091D00F065BC606B091D00F061FCA06AE6
:102B7000854200D2A562BDE8F08100001800002067
:102B8000580A00202DE9F041054600F075FC2E4C56
:102B9000A068401CA06020682C4F10B1606940B351
:102BA0002DE02560A068012829D1002606EB8600CB
:102BB00007EB800000F02EFC761C072EF6D323488E
:102BC0008C3000F027FC2148A03000F023FC1F4887
:102BD000B43000F01FFC1D48C83000F01BFC1B483F
:102BE000DC3000F017FC19488C3060631430A063AF
:102BF00005E02068E96AC06A884200D82560606AFA
:102C0000401C60626864E96A0120226988401043C0
:102C1000206101EB810007EB8000291D00F020FC02
:102C200000F04AFC606900280CD02068E96AC06A9C
:102C3000884207D206494FF080500860BFF34F8F9B
:102C4000BFF36F8FBDE8F081180000207C090020E1
:102C500004ED00E038B500F00FFC104C2068C8B956
:102C60000F4800F0D7FB0E48143000F0D3FB0C489F
:102C7000E060143020610A4B0020C83B009003F153
:102C800050020C210A2000F01BFE206010B105A1AB
:102C900000F094FCBDE8384000F00EBC5400002069
:102CA000340B0020546D72510000000030B4026CEF
:102CB0000B46002A0BD0C1681144C1608468A14250
:102CC00001D30168C16030BC1846FDF795BC30BC2B
:102CD00070472DE9F041856B174604460026026CCB
:102CE00082B1C7B1E068FDF787FCE168206C091A82
:102CF000E1602268914202D2A168081AE060022FC6
:102D000016D017E02068A8B9A06801F009F90646B6
:102D10000020A0600EE06068FDF76EFC216C60682A
:102D200008446060A168884204D32068606001E0C4
:102D300005B16D1E6D1CA5633046BDE8F08110B570
:102D4000044690F8590058B101280CD002280FD041
:102D5000502080F31188BFF34F8FBFF36F8FFEE7D2
:102D6000206B00F0BDFB2046BDE8104000F0B8BB72
:102D700010BD000010484FF42051420706D0C01D7E
:102D80000D4920F00700411AC1F520510B4A0023DC
:102D90000144C2E900030839183A21F00701116023
:102DA0004B600B600B1AC0E9001393604FF00040BA
:102DB00053605061704700005C0B002080000020D1
:102DC000144E154CA6F1C8074FF08058DFF84C9010
:102DD00012E000BF00F050FBF068C568281D00F04D
:102DE000EDFAA068401EA0606068401E606000F0C0
:102DF00063FB2846FFF7A3FF60680028EAD1386824
:102E00000128F9D9C9F80080BFF34F8FBFF36F8F46
:102E1000F2E70000440A00201800002004ED00E062
:102E200070B51D46049C51B1C4F80020C4E90F01DF
:102E30000121204600F078FD84F84C5070BD2460DC
:102E4000F4E700002DE9F05F8846DDE90B941546B4
:102E5000834691009A460A9EA522206BFDF743FC0B
:102E60006FF00301206B01EB8501084420F0070798
:102E7000780707D0502080F31188BFF34F8FBFF33E
:102E80006F8FFEE70025B8F1000F0FD05FF0000054
:102E9000221818F8001082F8341018F8001011B138
:102EA000401C1028F4D384F8435001E084F83450D7
:102EB000072E00D30626E662C4E91365201D00F044
:102EC000B4FA04F1180000F0B0FA2461C6F107006A
:102ED0006462A061656584F8585052465946384688
:102EE00000F05AFA2060B9F1000F01D0C9F8004093
:102EF000BDE8F09F30B5114900E011460A688242F2
:102F0000FBD34B685C18844203D140681844486086
:102F1000084643681C18944209D1084C183C2468A0
:102F2000A24209D052681A4442600A6812680260DC
:102F3000814200D0086030BD0460F9E780000020C5
:102F400070B5002441600B4D0061914206D8D11A42
:102F50008269914206D2011D286907E09A4203D294
:102F6000994201D3012403E0011DE86800F060FAF2
:102F7000204670BD5400002010B5044600F07CFAD5
:102F8000A06B28B15FF0000400F096FA204610BD57
:102F90000124F9E730B587B0394D67E0049800287F
:102FA00064DB069C606910B1201D00F007FA03A8DD
:102FB00000F0D8F8024604980A2857D2DFE800F05B
:102FC0000505052D334A05052D3394F8280040F0FA
:102FD000010084F828000599A069059B014420465A
:102FE000FFF7AEFF68B3216A2046884794F82800AF
:102FF00040073BD5002000900598A16900234218A6
:103000001946204601F0A4F8D8B9502080F3118861
:10301000BFF34F8FBFF36F8FFEE714F8280F20F038
:103020000100207022E094F8280040F0010084F8AC
:1030300028000598A06128B1811813462046FFF7A3
:103040007FFF13E0502080F31188BFF34F8FBFF351
:103050006F8FFEE794F82800810703D4204600F024
:103060003FFA03E020F0010084F82800002204A9C0
:10307000286800F0ADFD002890D107B030BD0000F9
:10308000540000202DE9FC410F46054600F078FB76
:1030900001A800F067F80446019818B100F0C6FFD7
:1030A000BDE8FC81254EAFB130690068D0B3002780
:1030B000291B3A46306800F095FA00F0B7FF002867
:1030C000EED11F494FF080500860BFF34F8FBFF320
:1030D0006F8FE5E7A542EBD800F0A8FFF068274620
:1030E000C068C468201D00F069F994F82800410701
:1030F00019D5A0692B4641193A462046FFF720FF13
:10310000A8B100200346014600902A46204601F05F
:103110001FF860B9502080F31188BFF34F8FBFF3C1
:103120006F8FFEE707E020F0010084F82800216A95
:1031300020468847B4E70127BAE700005400002082
:1031400004ED00E00648416B096829B1416BC9688C
:10315000C9684968816270474FF0FF31FAE70000A3
:103160001800002070B5054600F06EFE064E0446BD
:10317000B068844203D200F009F8012000E000208A
:1031800028602046B46070BD54000020F8B5194D89
:1031900020E0C068C4680668201D00F00FF9216AAD
:1031A0002046884794F82800400713D5A06930448A
:1031B000B04206D924616060211DE86800F038F94A
:1031C00008E000200346014600903246204600F009
:1031D000BFFF38B1E86801680029DAD12969C5E97B
:1031E0000310F8BD502080F31188BFF34F8FBFF359
:1031F0006F8FFEE75400002008484068401C4FF0E5
:10320000500080F3118804D0BFF34F8FBFF36F8F4E
:10321000FEE7BFF34F8FBFF36F8FFEE788000020FC
:10322000074CE068016841B1C0680021D0F8000097
:10323000FFF728FFFFF7AEFEF3E701210020F7E7D5
:10324000540000202DE9F041044600F015F994F9EE
:10325000455004F1240609E0606A48B1304600F0A8
:10326000ABFE08B100F00EFA6D1E6DB2002DF3DC5E
:103270004FF0FF3684F8456000F01EF900F0FCF8CE
:1032800094F9445004F1100709E0206948B1384628
:1032900000F092FE08B100F0F5F96D1E6DB2002D40
:1032A000F3DC84F84460BDE8F04100F005B90000AB
:1032B0002DE9F0410546002700F062FA354E3068EE
:1032C00008B9FFF757FD7069054216D1ADB1083551
:1032D00068070ED005F00700C0F108000544680734
:1032E00007D0502080F31188BFF34F8FBFF36F8F4B
:1032F000FEE715B17068854202D900F097FE39E00B
:103300002448183001460C6801E020460C466168EC
:10331000A94202D221680029F7D131688C42ECD051
:1033200007682168016060680837411B10290ED9C1
:103330006019420707D0502080F31188BFF34F8FE8
:10334000BFF36F8FFEE741606560FFF7D3FD6168F3
:103350007068401A7060B268904200D2B0607069C4
:1033600001430020C4E90001F068401CF06000F057
:103370005DFE0FB900F04CF8780707D0502080F3BD
:103380001188BFF34F8FBFF36F8FFEE73846BDE85C
:10339000F08100006800002010B5031F4FF080741A
:1033A0001C601B1F21F001011960191F024B0B60EB
:1033B000143940380A6010BDF9310008D0E90132F3
:1033C00001699A60D0E901235A604A68824201D1BA
:1033D00082684A60002202610868401E086008682E
:1033E00070470000034B036003F15C00086080201D
:1033F0001060704794000020044B036003F15C00F0
:1034000008604FF48070106070470000F0020020E8
:103410007047704700F108014FF0FF32C0E9011218
:10342000C1600161002101607047002101617047A6
:1034300030B50B685A1C02D000F1080202E00269A4
:1034400004E02246546825689D42FAD953684B60CF
:1034500099608A60516008610168491C016030BD53
:1034600042684A6093688B60936859609160086114
:103470000168491C01607047502080F31188BFF338
:103480004F8FBFF36F8F0A494868401C486001287E
:103490000CD10848006810F0FF0F07D0502080F3CF
:1034A0001188BFF34F8FBFF36F8FFEE770470000A7
:1034B0008800002004ED00E00849486828B1401E5B
:1034C000486001D180F311887047502080F3118843
:1034D000BFF34F8FBFF36F8FFEE70000880000201F
:1034E00070B500282AD0164DA0F1080460686969FB
:1034F000084207D1502080F31188BFF34F8FBFF3EC
:103500006F8FFEE722683AB1502080F31188BFF335
:103510004F8FBFF36F8FFEE78843606000F030F994
:1035200060686968084468602046FFF7E3FC286922
:10353000401C2861BDE8704000F078BD70BD0000FF
:10354000680000204FF0E020002101618161054901
:103550004FF47A720968B1FBF2F1491E416107210B
:10356000016170471400002010B5FCF75FFE11499F
:1035700010280ED300F1E02090F8F0030A78904272
:1035800007D2502080F31188BFF34F8FBFF36F8FA6
:10359000FEE709480068896800F4E060884207D9BE
:1035A000502080F31188BFF34F8FBFF36F8FFEE77A
:1035B00010BD0000880000200CED00E010B5084BA5
:1035C000002200BF53F832401CB1521C082AF9D324
:1035D00010BD43F8321003EBC201486010BD00007B
:1035E0003C09002070B515460E460446FFF744FF1F
:1035F00094F944100020491C01D184F8440094F946
:103600004510491C01D184F84500FFF755FFA06B18
:1036100028B92A46314604F1240000F051F820462A
:10362000BDE87040FFF70EBE10B5020014D00F4881
:10363000006B38B1502080F31188BFF34F8FBFF378
:103640006F8FFEE700F09CF800211046FFF762FA4A
:1036500000F0ECFC002807D105494FF080500860CD
:10366000BFF34F8FBFF36F8F10BD00001800002015
:1036700004ED00E002490A6A0260C96841607047CF
:103680001800002001490120C8617047180000207F
:1036900010B50C4650B1094909681831FFF7C8FE4A
:1036A0002046BDE810400121FFF734BA502080F3D6
:1036B0001188BFF34F8FBFF36F8FFEE71800002014
:1036C00070B514460D4668B10A4909681831FFF70C
:1036D000C7FE0CB14FF0FF3521462846BDE87040CB
:1036E000FFF718BA502080F31188BFF34F8FBFF354
:1036F0006F8FFEE71800002030B587B000240394D8
:1037000005AA04A903A80494FFF76CFEDDE90301F0
:103710000094CDE90110002315A11748059A00F087
:103720005AFB164D0028E8621FD000F0E1FC01288A
:1037300009D0401C19D1502080F31188BFF34F8F5E
:10374000BFF36F8FFEE7502080F31188BFF34F8FD8
:10375000BFF36F8F4FF0FF30A86201206861EC600B
:1037600007B0BDE8304000F057B807B030BD0000EA
:1037700049444C4500000000C12D000818000020FD
:103780000248016B491C01637047000018000020CB
:1037900010B51F4C206B10B10120E06110BD00205E
:1037A000E06120684FF0A531006B02688A4208D1C1
:1037B00042688A4205D182688A4202D1C068884242
:1037C00004D0216820683431FFF723FE20691149B5
:1037D000B0FA80F0C0F11F0000EB800051F820200B
:1037E0006AB101EB800000F108024168496841605C
:1037F000914201D149684160C868206010BD5020E5
:1038000080F31188BFF34F8FBFF36F8FFEE7000087
:10381000180000207C0900201CB52649087801907A
:10382000FF20087008788DF800009DF800009DF8D2
:10383000002000F0F000904207D0502080F3118863
:10384000BFF34F8FBFF36F8FFEE79DF800001A4C58
:1038500000F0500020700720A06005E09DF80020D7
:1038600052008DF80020401E9DF800201206F5D46D
:10387000A060032807D0502080F31188BFF34F8F3A
:10388000BFF36F8FFEE74FF44070A060019808709F
:103890000A48016841F470010160016841F070411B
:1038A0000160FFF74FFE00206060FCF789FC0020FC
:1038B0001CBD000000E400E08800002020ED00E0D6
:1038C00038B5049D18B153B1CAB181B120E0502080
:1038D00080F31188BFF34F8FBFF36F8FFEE7502047
:1038E00080F31188BFF34F8FBFF36F8FFEE7502037
:1038F00080F31188BFF34F8FBFF36F8FFEE739B1AD
:10390000502080F31188BFF34F8FBFF36F8FFEE716
:1039100050241C46012384F846302B460094FFF7C0
:103920007FFA204638BD000070B50D46040025D052
:10393000FFF7A2FDD4E90F20216802FB0011A1606E
:103940000021A163216861600A46D4E90F01401E8D
:1039500000FB0121E16021464FF0FF3001F8440FE8
:10396000487004F110008DB1FFF754FD04F12400FC
:10397000FFF750FDFFF7A0FD012070BD502080F340
:103980001188BFF34F8FBFF36F8FFEE721690029C6
:10399000F0D000F011FB0028ECD004494FF080502B
:1039A0000860BFF34F8FBFF36F8FE3E704ED00E0D4
:1039B0002DE9FF4782B01D468A464FF000080400FB
:1039C00003D0BAF1000F08D011E0502080F3118825
:1039D000BFF34F8FBFF36F8FFEE7206C38B15020DD
:1039E00080F31188BFF34F8FBFF36F8FFEE7022D77
:1039F0000AD1E06B012807D0502080F31188BFF373
:103A00004F8FBFF36F8FFEE700F010FA3F4F4FF07C
:103A100000094FF0805648B9049838B1502080F31F
:103A20001188BFF34F8FBFF36F8FFEE7FFF724FDC1
:103A3000A06BE16B884207D3022D05D00498D0B16A
:103A4000B8F1000F1AD01EE02A4651462046FFF773
:103A500040F9616A19B104F1240000F0ADFA20B117
:103A60003E60BFF34F8FBFF36F8FFFF725FD01203F
:103A700006B0BDE8F087FFF71FFD22E06846FFF7BC
:103A8000F9FD4FF00108FFF717FDFFF779FEFFF78B
:103A9000F3FC94F94400401C01D184F8449094F95B
:103AA0004500401C01D184F84590FFF705FD04A9AD
:103AB000684600F029F930B12046FFF7C3FB00F05B
:103AC000B5FA0020D4E7FFF7D7FCA06BE16B884282
:103AD00013D1FFF7F1FC04F110000499FFF7D8FDB2
:103AE0002046FFF7AFFB00F0A1FA00289ED13E6010
:103AF000BFF34F8FBFF36F8F98E7FFF7DDFC2046D2
:103B0000FFF7A0FB00F092FA90E7000004ED00E060
:103B10002DE9F0471F4690468946040003D0B9F1CD
:103B2000000F08D011E0502080F31188BFF34F8FB1
:103B3000BFF36F8FFEE7206C38B1502080F31188FF
:103B4000BFF34F8FBFF36F8FFEE7022F0AD1E06BF9
:103B5000012807D0502080F31188BFF34F8FBFF3A7
:103B60006F8FFEE7FFF700FD5020EFF3118680F323
:103B70001188BFF34F8FBFF36F8FA06BE16B88424B
:103B800006D3022F04D0002086F31188BDE8F08709
:103B900094F94550A06B3A4649462046FFF799F8FC
:103BA000681C04D06D1C84F845500120ECE7606A65
:103BB0000028FAD004F1240000F0FEF90028F4D027
:103BC000B8F1000FF1D00121C8F80010EDE70000B6
:103BD0002DE9F747002683B08A46040003D0BAF1E6
:103BE000000F08D011E0502080F31188BFF34F8FF1
:103BF000BFF36F8FFEE7206C38B1502080F311883F
:103C0000BFF34F8FBFF36F8FFEE700F00FF9DFF8C0
:103C1000F4804FF000094FF0805748B9059838B14B
:103C2000502080F31188BFF34F8FBFF36F8FFEE7F3
:103C3000FFF722FCA56BC5B151462046FFF736F8C9
:103C40006D1EA563206950B104F1100000F0B4F9B5
:103C500028B1C8F80070BFF34F8FBFF36F8FFFF725
:103C60002BFC012006B0BDE8F087059808B11EB115
:103C700006E0FFF721FC27E06846FFF7FBFC012682
:103C8000FFF71AFCFFF77CFDFFF7F6FB94F9440001
:103C9000401C01D184F8449094F94500401C01D1A6
:103CA00084F84590FFF708FC05A9684600F02CF859
:103CB000002820460AD0FFF7C5FA00F0B7F92046E1
:103CC000FFF75AF90028B3D00020CBE7FFF754F9EB
:103CD00090B104F124000599FFF7DAFC2046FFF7C4
:103CE000B1FA00F0A3F90028A2D1C8F80070BFF320
:103CF0004F8FBFF36F8F9BE72046FFF7A3FA00F0CB
:103D000095F995E704ED00E02DE9F0410C4605003A
:103D100011D0C4B1FFF7B0FB174BDA686E682068AA
:103D2000911B471C17D02F681B6A9F4219D09642DF
:103D300017D8012410E0502080F31188BFF34F8F73
:103D4000BFF36F8FFEE7502080F31188BFF34F8FD2
:103D5000BFF36F8FFEE70024FFF7AEFB2046BDE800
:103D6000F081884205D9401A20602846FFF782FC7E
:103D7000F1E700202060DCE7180000202DE9FF5F5C
:103D80008346DDE90E87994616468A469000FFF77E
:103D90008FFA05001CD05C20FFF78AFA040014D0CB
:103DA0000020256384F85900CDE90240CDE9008761
:103DB0004B46324651465846FFF744F82046FEF738
:103DC000E1FE012004B0BDE8F09F2846FFF788FB24
:103DD0004FF0FF30F6E7F0B585B0DDE90B640A9DE2
:103DE000A6B1DCB15C2700972663022684F85960EF
:103DF000002604AFCDE90246CDE90057FFF722F8CF
:103E00002046FEF7BFFE049805B0F0BD502080F3B9
:103E10001188BFF34F8FBFF36F8FFEE7502080F301
:103E20001188BFF34F8FBFF36F8FFEE705484169DD
:103E300019B1006B18B100207047012070470220B3
:103E400070470000180000200148C068704700005B
:103E5000180000202DE9F0412F4C0026206B28B1DE
:103E6000A069401CA0613046BDE8F081E5686D1C8A
:103E7000E56013D1606B006838B1502080F3118881
:103E8000BFF34F8FBFF36F8FFEE7606BA16B616372
:103E9000A063206A401C2062FFF754F9A06ADFF893
:103EA0007C80854209D3606B0068A0B1606BC068FC
:103EB000C7687868854211D2A0622068C06A00EBAA
:103EC000800158F82100012800D90126E069002866
:103ED000C9D00126C7E74FF0FF30EDE7381DFFF7E7
:103EE0006DFAB86A18B107F11800FFF767FAF96AB6
:103EF0000120226988401043206101EB810108EB19
:103F00008100391DFFF7ACFAF86A2168C96A884256
:103F1000C9D30126C7E70000180000207C09002053
:103F200070B504004FF0000140D0214D2868844254
:103F300007D0502080F31188BFF34F8FBFF36F8FEE
:103F4000FEE7206D38B1401E2065E36CE26A9A42BC
:103F50002CD040B12AE0502080F31188BFF34F8F5E
:103F6000BFF36F8FFEE7201DFFF728FA114A0121EA
:103F700050B9E06A00EB800352F8233023B92B6973
:103F800001FA00F083432B61E06CE062C0F10700AE
:103F9000A061E06A2B6981401943296100EB800030
:103FA00002EB8000211DFFF75BFA0121084670BD7E
:103FB000180000207C0900202DE9F041C068C46889
:103FC000ACB104F118000746FFF7F8F9154D286B5E
:103FD0000126A0B139461448FFF742FAE06A296881
:103FE000C96A88421CD90120EE61BDE8F0815020E9
:103FF00080F31188BFF34F8FBFF36F8FFEE7201D53
:10400000FFF7DCF9E16A2A6906FA01F0104328613A
:1040100001EB81000449B43901EB8000211DDBE78D
:104020000020E2E718000020300A00202DE9F047C8
:104030002C4D00242746286B38B1FFF71DFA286B5A
:10404000401E2863286B40B146E0502080F3118861
:10405000BFF34F8FBFF36F8FFEE7A968224E012099
:10406000D1B3A6F1B40980463068E8B1F068C468FD
:1040700004F11800FFF7A2F9201DFFF79FF9E06A8D
:104080002A6908FA00F11143296100EB800109EB6C
:104090008100211DFFF7E4F9E06A2968C96A8842B6
:1040A000E2D3C5F81C80DFE70CB1FFF74BF8AC6931
:1040B00044B14646FFF7CEFE00B1EE61641EF9D171
:1040C0000020A861E86938B108490127380708606D
:1040D000BFF34F8FBFF36F8FFFF7EEF93846BDE8A0
:1040E000F087000018000020300A002004ED00E0F6
:1040F00010B586B0FEF7AEFD114C2068B8B10020B7
:104100000390049005AA04A903A8FFF775F9DDE957
:10411000032102208DE8070000230AA10B48059A1D
:10412000FFF759FE606010B106B0012010BD5020AD
:1041300080F31188BFF34F8FBFF36F8FFEE700004E
:1041400054000020546D7220537663002132000821
:10415000FEB51E4613460200089D4FF0000014D025
:10416000124C2768002F0FD0CDE9001302920629C8
:1041700015DAFFF75BFE02284FF000030DD0002296
:1041800069462068FFF714FCFEBD502080F31188BB
:10419000BFF34F8FBFF36F8FFEE72A46F0E7002390
:1041A000324669463846FFF7B3FCFEBD5400002096
:1041B00040460008892000080000000000000000C0
:1041C00080000000000000000000000048656C6CEA
:1041D0006F20466C61736821000000000000000041
:1041E000963007772C610EEEBA51099919C46D0704
:1041F0008FF46A7035A563E9A395649E3288DB0E5F
:10420000A4B8DC791EE9D5E088D9D2972B4CB60941
:10421000BD7CB17E072DB8E7911DBF906410B71D1E
:10422000F220B06A4871B9F3DE41BE847DD4DA1A57
:10423000EBE4DD6D51B5D4F4C785D38356986C1388
:10424000C0A86B647AF962FDECC9658A4F5C011401
:10425000D96C0663633D0FFAF50D088DC8206E3BDF
:104260005E10694CE44160D5727167A2D1E4033CF1
:1042700047D4044BFD850DD26BB50AA5FAA8B53518
:104280006C98B242D6C9BBDB40F9BCACE36CD83207
:10429000755CDF45CF0DD6DC593DD1ABAC30D926AE
:1042A0003A00DE518051D7C81661D0BFB5F4B421B1
:1042B00023C4B3569995BACF0FA5BDB89EB80228AE
:1042C0000888055FB2D90CC624E90BB1877C6F2F33
:1042D000114C6858AB1D61C13D2D66B69041DC762E
:1042E0000671DB01BC20D2982A10D5EF8985B17107
:1042F0001FB5B606A5E4BF9F33D4B8E8A2C90778B6
:1043000034F9000F8EA8099618980EE1BB0D6A7F4C
:104310002D3D6D08976C6491015C63E6F4516B6B05
:1043200062616C1CD83065854E0062F2ED95066CBA
:104330007BA5011BC1F4088257C40FF5C6D9B0652F
:1043400050E9B712EAB8BE8B7C88B9FCDF1DDD628C
:10435000492DDA15F37CD38C654CD4FB5861B24DF2
:10436000CE51B53A7400BCA3E230BBD441A5DF4ABC
:10437000D795D83D6DC4D1A4FBF4D6D36AE969437F
:10438000FCD96E34468867ADD0B860DA732D04442A
:10439000E51D03335F4C0AAAC97C0DDD3C71055055
:1043A000AA41022710100BBE86200CC925B56857FC
:1043B000B3856F2009D466B99FE461CE0EF9DE5E45
:1043C00098C9D9292298D0B0B4A8D7C7173DB359F6
:1043D000810DB42E3B5CBDB7AD6CBAC02083B8ED87
:1043E000B6B3BF9A0CE2B6039AD2B1743947D5EA94
:1043F000AF77D29D1526DB048316DC73120B63E3C3
:10440000843B64943E6A6D0DA85A6A7A0BCF0EE421
:104410009DFF099327AE000AB19E077D44930FF0DC
:10442000D2A3088768F2011EFEC206695D5762F7D3
:10443000CB67658071366C19E7066B6E761BD4FE10
:10444000E02BD3895A7ADA10CC4ADD676FDFB9F9ED
:10445000F9EFBE8E43BEB717D58EB060E8A3D6D6AF
:104460007E93D1A1C4C2D83852F2DF4FF167BBD1DD
:104470006757BCA6DD06B53F4B36B248DA2B0DD8E0
:104480004C1B0AAFF64A0336607A0441C3EF60DF83
:1044900055DF67A8EF8E6E3179BE69468CB361CB6C
:1044A0001A8366BCA0D26F2536E2685295770CCC91
:1044B00003470BBBB91602222F260555BE3BBAC5D2
:1044C000280BBDB2925AB42B046AB35CA7FFD7C2C3
:1044D00031CFD0B58B9ED92C1DAEDE5BB0C2649BB4
:1044E00026F263EC9CA36A750A936D02A906099CE7
:1044F0003F360EEB8567077213570005824ABF955A
:10450000147AB8E2AE2BB17B381BB60C9B8ED292DC
:104510000DBED5E5B7EFDC7C21DFDB0BD4D2D38633
:1045200042E2D4F1F8B3DD686E83DA1FCD16BE81A6
:104530005B26B9F6E177B06F7747B718E65A088877
:10454000706A0FFFCA3B06665C0B0111FF9E658F08
:1045500069AE62F8D3FF6B6145CF6C1678E20AA0B2
:10456000EED20DD75483044EC2B30339612667A738
:10457000F71660D04D476949DB776E3E4A6AD1AE87
:10458000DC5AD6D9660BDF40F03BD83753AEBCA916
:10459000C39EDEDE7D89D747ABB8D0306E9CDABDD6
:1045A000DC2BDDCA1590D4538780D324E92C6DB35E
:1045B000654D6AC4970B685D012B6F2A37BE0BB43B
:1045C000A18E0CC31BDF055A8DEF022D00000000E9
:1045D00000000000000000000000000001020203D3
:1045E0000405060708090A0B0C0D0E0F1010000039
:1045F0000000000000000102030406070809000093
:104600000000010203043031323334353637383993
:10461000414243444546403058003031323334350E
:10462000363738396162636465664030780004006B
:10463000000800000000000000020001000010005F
:1046400064656661756C745461736B006C46000838
:104650000000002094000000280100080047000826
:10466000940000202C3900004401000800000000E4
:104670000000000001000000100000000000000029
:1046800000127A000000000000000000000000009E
:10469000000000000000000000000000000000001A
:1046A000000000000000000000000000000000000A
:1046B00000000000000000000000000000000000FA
:1046C00000000000000000000000000000000000EA
:1046D00000000000000000000000000000000000DA
:1046E00000000000000000000000000000000000CA
:1046F0000000000000000000AAAAAAAA0000000012
:04000005080000ED02
:00000001FF
